{
    "contractName": "FundMe",
    "abi": [
        {
            "inputs": [
                {
                    "internalType": "address",
                    "name": "_priceFeed",
                    "type": "address"
                }
            ],
            "stateMutability": "nonpayable",
            "type": "constructor"
        },
        {
            "inputs": [],
            "name": "NotOwner",
            "type": "error"
        },
        {
            "stateMutability": "payable",
            "type": "fallback"
        },
        {
            "inputs": [],
            "name": "MINIMUM_USD",
            "outputs": [
                {
                    "internalType": "uint256",
                    "name": "",
                    "type": "uint256"
                }
            ],
            "stateMutability": "view",
            "type": "function"
        },
        {
            "inputs": [
                {
                    "internalType": "address",
                    "name": "",
                    "type": "address"
                }
            ],
            "name": "addressToAmountFunded",
            "outputs": [
                {
                    "internalType": "uint256",
                    "name": "",
                    "type": "uint256"
                }
            ],
            "stateMutability": "view",
            "type": "function"
        },
        {
            "inputs": [],
            "name": "fund",
            "outputs": [],
            "stateMutability": "payable",
            "type": "function"
        },
        {
            "inputs": [
                {
                    "internalType": "uint256",
                    "name": "",
                    "type": "uint256"
                }
            ],
            "name": "funders",
            "outputs": [
                {
                    "internalType": "address",
                    "name": "",
                    "type": "address"
                }
            ],
            "stateMutability": "view",
            "type": "function"
        },
        {
            "inputs": [],
            "name": "getVersion",
            "outputs": [
                {
                    "internalType": "uint256",
                    "name": "",
                    "type": "uint256"
                }
            ],
            "stateMutability": "view",
            "type": "function"
        },
        {
            "inputs": [],
            "name": "i_owner",
            "outputs": [
                {
                    "internalType": "address",
                    "name": "",
                    "type": "address"
                }
            ],
            "stateMutability": "view",
            "type": "function"
        },
        {
            "inputs": [],
            "name": "priceFeed",
            "outputs": [
                {
                    "internalType": "contract AggregatorV3Interface",
                    "name": "",
                    "type": "address"
                }
            ],
            "stateMutability": "view",
            "type": "function"
        },
        {
            "inputs": [],
            "name": "withdraw",
            "outputs": [],
            "stateMutability": "payable",
            "type": "function"
        },
        {
            "stateMutability": "payable",
            "type": "receive"
        }
    ],
    "bytecode": "608060405234801561001057600080fd5b5060405161082838038061082883398101604081905261002f9161005d565b600080546001600160a01b039092166001600160a01b0319928316179055600380549091163317905561008d565b60006020828403121561006f57600080fd5b81516001600160a01b038116811461008657600080fd5b9392505050565b61078c8061009c6000396000f3fe60806040526004361061007f5760003560e01c8063741bef1a1161004e578063741bef1a14610110578063b60d42881461008e578063dba6335f14610148578063dc0d3dff146101685761008e565b80630d8e6e2c146100965780633ccfd60b146100be5780633e47d6f3146100c65780636b69a592146100f35761008e565b3661008e5761008c610188565b005b61008c610188565b3480156100a257600080fd5b506100ab610265565b6040519081526020015b60405180910390f35b61008c6102e2565b3480156100d257600080fd5b506100ab6100e1366004610569565b60016020526000908152604090205481565b3480156100ff57600080fd5b506100ab6802b5e3af16b188000081565b34801561011c57600080fd5b50600054610130906001600160a01b031681565b6040516001600160a01b0390911681526020016100b5565b34801561015457600080fd5b50600354610130906001600160a01b031681565b34801561017457600080fd5b50610130610183366004610592565b61040c565b6000546802b5e3af16b1880000906101aa9034906001600160a01b0316610436565b10156101fd5760405162461bcd60e51b815260206004820152601b60248201527f596f75206e65656420746f207370656e64206d6f72652045544821000000000060448201526064015b60405180910390fd5b336000908152600160205260408120805434929061021c9084906105c1565b9091555050600280546001810182556000919091527f405787fa12a823e0f2b7631cc41b3ba8828b3321ca811111fa75cd3aa3bb5ace0180546001600160a01b03191633179055565b60008060009054906101000a90046001600160a01b03166001600160a01b03166354fd4d506040518163ffffffff1660e01b8152600401602060405180830381865afa1580156102b9573d6000803e3d6000fd5b505050506040513d601f19601f820116820180604052508101906102dd91906105d9565b905090565b6003546001600160a01b0316331461030d576040516330cd747160e01b815260040160405180910390fd5b60005b6002548110156103645760006002828154811061032f5761032f6105f2565b60009182526020808320909101546001600160a01b03168252600190526040812055508061035c81610608565b915050610310565b506040805160008152602081019182905251610382916002916104ef565b50604051600090339047908381818185875af1925050503d80600081146103c5576040519150601f19603f3d011682016040523d82523d6000602084013e6103ca565b606091505b50509050806104095760405162461bcd60e51b815260206004820152600b60248201526a10d85b1b0819985a5b195960aa1b60448201526064016101f4565b50565b6002818154811061041c57600080fd5b6000918252602090912001546001600160a01b0316905081565b6000806104428361046c565b90506000670de0b6b3a76400006104598684610621565b6104639190610640565b95945050505050565b600080826001600160a01b031663feaf968c6040518163ffffffff1660e01b815260040160a060405180830381865afa1580156104ad573d6000803e3d6000fd5b505050506040513d601f19601f820116820180604052508101906104d19190610681565b505050915050806402540be4006104e891906106d1565b9392505050565b828054828255906000526020600020908101928215610544579160200282015b8281111561054457825182546001600160a01b0319166001600160a01b0390911617825560209092019160019091019061050f565b50610550929150610554565b5090565b5b808211156105505760008155600101610555565b60006020828403121561057b57600080fd5b81356001600160a01b03811681146104e857600080fd5b6000602082840312156105a457600080fd5b5035919050565b634e487b7160e01b600052601160045260246000fd5b600082198211156105d4576105d46105ab565b500190565b6000602082840312156105eb57600080fd5b5051919050565b634e487b7160e01b600052603260045260246000fd5b60006001820161061a5761061a6105ab565b5060010190565b600081600019048311821515161561063b5761063b6105ab565b500290565b60008261065d57634e487b7160e01b600052601260045260246000fd5b500490565b805169ffffffffffffffffffff8116811461067c57600080fd5b919050565b600080600080600060a0868803121561069957600080fd5b6106a286610662565b94506020860151935060408601519250606086015191506106c560808701610662565b90509295509295909350565b60006001600160ff1b03818413828413808216868404861116156106f7576106f76105ab565b600160ff1b6000871282811687830589121615610716576107166105ab565b60008712925087820587128484161615610732576107326105ab565b87850587128184161615610748576107486105ab565b50505092909302939250505056fea26469706673582212208fa2fe1a1312bc8eb95059f20c683001afb5e82b72055728acc9f4d09095f64c64736f6c634300080f0033",
    "sourcePath": "/Users/bricegrenard/Desktop/blockchain_tuto/hardhat-fundme/contracts/Fundme.sol",
    "compiler": {
        "name": "solc",
        "version": "0.8.15+commit.e14f2714"
    },
    "functionHashes": {
        "MINIMUM_USD()": "6b69a592",
        "addressToAmountFunded(address)": "3e47d6f3",
        "fund()": "b60d4288",
        "funders(uint256)": "dc0d3dff",
        "getVersion()": "0d8e6e2c",
        "i_owner()": "dba6335f",
        "priceFeed()": "741bef1a",
        "withdraw()": "3ccfd60b"
    },
    "gasEstimates": {
        "creation": {
            "codeDepositCost": "386400",
            "executionCost": "infinite",
            "totalCost": "infinite"
        },
        "external": {
            "": "infinite",
            "MINIMUM_USD()": "251",
            "addressToAmountFunded(address)": "2518",
            "fund()": "infinite",
            "funders(uint256)": "4680",
            "getVersion()": "infinite",
            "i_owner()": "2381",
            "priceFeed()": "2337",
            "withdraw()": "infinite"
        }
    }
}